{"abi":[{"type":"function","name":"allowance","inputs":[{"name":"","type":"address","internalType":"address"},{"name":"","type":"address","internalType":"address"}],"outputs":[{"name":"","type":"uint256","internalType":"uint256"}],"stateMutability":"view"},{"type":"function","name":"balanceOf","inputs":[{"name":"","type":"address","internalType":"address"}],"outputs":[{"name":"","type":"uint256","internalType":"uint256"}],"stateMutability":"view"},{"type":"function","name":"decimals","inputs":[],"outputs":[{"name":"","type":"uint8","internalType":"uint8"}],"stateMutability":"view"},{"type":"function","name":"deposit","inputs":[],"outputs":[],"stateMutability":"payable"},{"type":"function","name":"name","inputs":[],"outputs":[{"name":"","type":"string","internalType":"string"}],"stateMutability":"view"},{"type":"function","name":"symbol","inputs":[],"outputs":[{"name":"","type":"string","internalType":"string"}],"stateMutability":"view"},{"type":"function","name":"totalSupply","inputs":[],"outputs":[{"name":"","type":"uint256","internalType":"uint256"}],"stateMutability":"view"},{"type":"function","name":"withdraw","inputs":[{"name":"wad","type":"uint256","internalType":"uint256"}],"outputs":[],"stateMutability":"nonpayable"},{"type":"event","name":"Deposit","inputs":[{"name":"dst","type":"address","indexed":true,"internalType":"address"},{"name":"wad","type":"uint256","indexed":false,"internalType":"uint256"}],"anonymous":false},{"type":"event","name":"Withdrawal","inputs":[{"name":"src","type":"address","indexed":true,"internalType":"address"},{"name":"wad","type":"uint256","indexed":false,"internalType":"uint256"}],"anonymous":false}],"bytecode":{"object":"0x60806040526040518060400160405280600d81526020017f57726170706564204574686572000000000000000000000000000000000000008152505f908162000049919062000323565b506040518060400160405280600481526020017f57455448000000000000000000000000000000000000000000000000000000008152506001908162000090919062000323565b50601260025f6101000a81548160ff021916908360ff160217905550348015620000b8575f80fd5b5062000407565b5f81519050919050565b7f4e487b71000000000000000000000000000000000000000000000000000000005f52604160045260245ffd5b7f4e487b71000000000000000000000000000000000000000000000000000000005f52602260045260245ffd5b5f60028204905060018216806200013b57607f821691505b602082108103620001515762000150620000f6565b5b50919050565b5f819050815f5260205f209050919050565b5f6020601f8301049050919050565b5f82821b905092915050565b5f60088302620001b57fffffffffffffffffffffffffffffffffffffffffffffffffffffffffffffffff8262000178565b620001c1868362000178565b95508019841693508086168417925050509392505050565b5f819050919050565b5f819050919050565b5f6200020b62000205620001ff84620001d9565b620001e2565b620001d9565b9050919050565b5f819050919050565b6200022683620001eb565b6200023e620002358262000212565b84845462000184565b825550505050565b5f90565b6200025462000246565b620002618184846200021b565b505050565b5b8181101562000288576200027c5f826200024a565b60018101905062000267565b5050565b601f821115620002d757620002a18162000157565b620002ac8462000169565b81016020851015620002bc578190505b620002d4620002cb8562000169565b83018262000266565b50505b505050565b5f82821c905092915050565b5f620002f95f1984600802620002dc565b1980831691505092915050565b5f620003138383620002e8565b9150826002028217905092915050565b6200032e82620000bf565b67ffffffffffffffff8111156200034a5762000349620000c9565b5b62000356825462000123565b620003638282856200028c565b5f60209050601f83116001811462000399575f841562000384578287015190505b62000390858262000306565b865550620003ff565b601f198416620003a98662000157565b5f5b82811015620003d257848901518255600182019150602085019450602081019050620003ab565b86831015620003f25784890151620003ee601f891682620002e8565b8355505b6001600288020188555050505b505050505050565b61096880620004155f395ff3fe60806040526004361061007a575f3560e01c806370a082311161004d57806370a082311461012457806395d89b4114610160578063d0e30db01461018a578063dd62ed3e146101945761007a565b806306fdde031461007e57806318160ddd146100a85780632e1a7d4d146100d2578063313ce567146100fa575b5f80fd5b348015610089575f80fd5b506100926101d0565b60405161009f91906105f8565b60405180910390f35b3480156100b3575f80fd5b506100bc61025b565b6040516100c99190610630565b60405180910390f35b3480156100dd575f80fd5b506100f860048036038101906100f39190610677565b610262565b005b348015610105575f80fd5b5061010e6103f8565b60405161011b91906106bd565b60405180910390f35b34801561012f575f80fd5b5061014a60048036038101906101459190610730565b61040a565b6040516101579190610630565b60405180910390f35b34801561016b575f80fd5b5061017461041f565b60405161018191906105f8565b60405180910390f35b6101926104ab565b005b34801561019f575f80fd5b506101ba60048036038101906101b5919061075b565b61054e565b6040516101c79190610630565b60405180910390f35b5f80546101dc906107c6565b80601f0160208091040260200160405190810160405280929190818152602001828054610208906107c6565b80156102535780601f1061022a57610100808354040283529160200191610253565b820191905f5260205f20905b81548152906001019060200180831161023657829003601f168201915b505050505081565b5f47905090565b8060035f3373ffffffffffffffffffffffffffffffffffffffff1673ffffffffffffffffffffffffffffffffffffffff1681526020019081526020015f205410156102ab575f80fd5b8060035f3373ffffffffffffffffffffffffffffffffffffffff1673ffffffffffffffffffffffffffffffffffffffff1681526020019081526020015f205f8282546102f79190610823565b925050819055505f3373ffffffffffffffffffffffffffffffffffffffff168260405161032390610883565b5f6040518083038185875af1925050503d805f811461035d576040519150601f19603f3d011682016040523d82523d5f602084013e610362565b606091505b50509050806103a6576040517f08c379a000000000000000000000000000000000000000000000000000000000815260040161039d906108e1565b60405180910390fd5b3373ffffffffffffffffffffffffffffffffffffffff167f7fcf532c15f0a6db0bd6d0e038bea71d30d808c7d98cb3bf7268a95bf5081b65836040516103ec9190610630565b60405180910390a25050565b60025f9054906101000a900460ff1681565b6003602052805f5260405f205f915090505481565b6001805461042c906107c6565b80601f0160208091040260200160405190810160405280929190818152602001828054610458906107c6565b80156104a35780601f1061047a576101008083540402835291602001916104a3565b820191905f5260205f20905b81548152906001019060200180831161048657829003601f168201915b505050505081565b3460035f3373ffffffffffffffffffffffffffffffffffffffff1673ffffffffffffffffffffffffffffffffffffffff1681526020019081526020015f205f8282546104f791906108ff565b925050819055503373ffffffffffffffffffffffffffffffffffffffff167fe1fffcc4923d04b559f4d29a8bfc6cda04eb5b0d3c460751c2402c5c5cc9109c346040516105449190610630565b60405180910390a2565b6004602052815f5260405f20602052805f5260405f205f91509150505481565b5f81519050919050565b5f82825260208201905092915050565b5f5b838110156105a557808201518184015260208101905061058a565b5f8484015250505050565b5f601f19601f8301169050919050565b5f6105ca8261056e565b6105d48185610578565b93506105e4818560208601610588565b6105ed816105b0565b840191505092915050565b5f6020820190508181035f83015261061081846105c0565b905092915050565b5f819050919050565b61062a81610618565b82525050565b5f6020820190506106435f830184610621565b92915050565b5f80fd5b61065681610618565b8114610660575f80fd5b50565b5f813590506106718161064d565b92915050565b5f6020828403121561068c5761068b610649565b5b5f61069984828501610663565b91505092915050565b5f60ff82169050919050565b6106b7816106a2565b82525050565b5f6020820190506106d05f8301846106ae565b92915050565b5f73ffffffffffffffffffffffffffffffffffffffff82169050919050565b5f6106ff826106d6565b9050919050565b61070f816106f5565b8114610719575f80fd5b50565b5f8135905061072a81610706565b92915050565b5f6020828403121561074557610744610649565b5b5f6107528482850161071c565b91505092915050565b5f806040838503121561077157610770610649565b5b5f61077e8582860161071c565b925050602061078f8582860161071c565b9150509250929050565b7f4e487b71000000000000000000000000000000000000000000000000000000005f52602260045260245ffd5b5f60028204905060018216806107dd57607f821691505b6020821081036107f0576107ef610799565b5b50919050565b7f4e487b71000000000000000000000000000000000000000000000000000000005f52601160045260245ffd5b5f61082d82610618565b915061083883610618565b92508282039050818111156108505761084f6107f6565b5b92915050565b5f81905092915050565b50565b5f61086e5f83610856565b915061087982610860565b5f82019050919050565b5f61088d82610863565b9150819050919050565b7f455448207472616e73666572206661696c6564000000000000000000000000005f82015250565b5f6108cb601383610578565b91506108d682610897565b602082019050919050565b5f6020820190508181035f8301526108f8816108bf565b9050919050565b5f61090982610618565b915061091483610618565b925082820190508082111561092c5761092b6107f6565b5b9291505056fea264697066735822122024a33a1f77e8d389a1ca2ebaa449447348b997f85147a15296e7e4482a1190fc64736f6c63430008180033","linkReferences":{}},"methodIdentifiers":{"allowance(address,address)":"dd62ed3e","balanceOf(address)":"70a08231","decimals()":"313ce567","deposit()":"d0e30db0","name()":"06fdde03","symbol()":"95d89b41","totalSupply()":"18160ddd","withdraw(uint256)":"2e1a7d4d"},"id":6}